{
  "contractName": "Gox",
  "abi": [
    {
      "inputs": [],
      "payable": false,
      "stateMutability": "nonpayable",
      "type": "constructor"
    },
    {
      "constant": true,
      "inputs": [
        {
          "internalType": "uint256",
          "name": "",
          "type": "uint256"
        }
      ],
      "name": "entries",
      "outputs": [
        {
          "internalType": "uint256",
          "name": "id",
          "type": "uint256"
        },
        {
          "internalType": "uint256",
          "name": "uid",
          "type": "uint256"
        },
        {
          "internalType": "uint256",
          "name": "pid",
          "type": "uint256"
        },
        {
          "internalType": "string",
          "name": "content",
          "type": "string"
        }
      ],
      "payable": false,
      "stateMutability": "view",
      "type": "function"
    },
    {
      "constant": true,
      "inputs": [],
      "name": "entriesCnt",
      "outputs": [
        {
          "internalType": "uint256",
          "name": "",
          "type": "uint256"
        }
      ],
      "payable": false,
      "stateMutability": "view",
      "type": "function"
    },
    {
      "constant": true,
      "inputs": [
        {
          "internalType": "uint256",
          "name": "",
          "type": "uint256"
        }
      ],
      "name": "publishers",
      "outputs": [
        {
          "internalType": "uint256",
          "name": "id",
          "type": "uint256"
        },
        {
          "internalType": "string",
          "name": "name",
          "type": "string"
        }
      ],
      "payable": false,
      "stateMutability": "view",
      "type": "function"
    },
    {
      "constant": true,
      "inputs": [],
      "name": "publishersCnt",
      "outputs": [
        {
          "internalType": "uint256",
          "name": "",
          "type": "uint256"
        }
      ],
      "payable": false,
      "stateMutability": "view",
      "type": "function"
    },
    {
      "constant": true,
      "inputs": [
        {
          "internalType": "uint256",
          "name": "",
          "type": "uint256"
        }
      ],
      "name": "users",
      "outputs": [
        {
          "internalType": "uint256",
          "name": "id",
          "type": "uint256"
        },
        {
          "internalType": "string",
          "name": "name",
          "type": "string"
        }
      ],
      "payable": false,
      "stateMutability": "view",
      "type": "function"
    },
    {
      "constant": true,
      "inputs": [],
      "name": "usersCnt",
      "outputs": [
        {
          "internalType": "uint256",
          "name": "",
          "type": "uint256"
        }
      ],
      "payable": false,
      "stateMutability": "view",
      "type": "function"
    },
    {
      "constant": false,
      "inputs": [
        {
          "internalType": "uint256",
          "name": "_id",
          "type": "uint256"
        },
        {
          "internalType": "string",
          "name": "_name",
          "type": "string"
        }
      ],
      "name": "createUser",
      "outputs": [],
      "payable": false,
      "stateMutability": "nonpayable",
      "type": "function"
    },
    {
      "constant": false,
      "inputs": [
        {
          "internalType": "uint256",
          "name": "_id",
          "type": "uint256"
        },
        {
          "internalType": "string",
          "name": "_name",
          "type": "string"
        }
      ],
      "name": "createPublisher",
      "outputs": [],
      "payable": false,
      "stateMutability": "nonpayable",
      "type": "function"
    },
    {
      "constant": false,
      "inputs": [
        {
          "internalType": "uint256",
          "name": "_uid",
          "type": "uint256"
        },
        {
          "internalType": "uint256",
          "name": "_pid",
          "type": "uint256"
        },
        {
          "internalType": "string",
          "name": "_content",
          "type": "string"
        }
      ],
      "name": "createEntry",
      "outputs": [],
      "payable": false,
      "stateMutability": "nonpayable",
      "type": "function"
    }
  ],
  "bytecode": "0x6080604052600080556000600155600060025534801561001e57600080fd5b5061004c6001604051806040016040528060048152602001636b6f626960e01b81525061016660201b60201c565b6100796002604051806040016040528060048152602001636d61746560e01b81525061016660201b60201c565b6100b260016040518060400160405280601081526020016f486169666120556e697665727369747960801b8152506101b360201b60201c565b6100f860026040518060400160405280601381526020017f54656c204176697620556e6976657273697479000000000000000000000000008152506101b360201b60201c565b61012c600160026040518060400160405280600981526020016843532064656772656560b81b8152506101fc60201b60201c565b610161600260016040518060400160405280600a815260200169446f672064656772656560b01b8152506101fc60201b60201c565b610304565b6000805460019081018255604080518082018252858152602080820186815287865260038252929094208151815591518051919492936101ac9390850192910190610269565b5050505050565b600280546001908101909155604080518082018252848152602080820185815260008781526005835293909320825181559251805192946101ac93908501929190910190610269565b600180548101808255604080516080810182528281526020808201888152828401888152606084018881526000968752600484529490952083518155905195810195909555925160028501559051805191939261026192600385019290910190610269565b505050505050565b828054600181600116156101000203166002900490600052602060002090601f016020900481019282601f106102aa57805160ff19168380011785556102d7565b828001600101855582156102d7579182015b828111156102d75782518255916020019190600101906102bc565b506102e39291506102e7565b5090565b61030191905b808211156102e357600081556001016102ed565b90565b6107f9806103136000396000f3fe608060405234801561001057600080fd5b50600436106100935760003560e01c80638004b448116100665780638004b448146102af57806383d7da43146102b7578063b30906d414610364578063e87e10531461040e578063ff060fbd1461041657610093565b80632efbf57e146100985780632f4ec30c1461014757806335a5cbdc14610161578063365b98b214610213575b600080fd5b610145600480360360408110156100ae57600080fd5b813591908101906040810160208201356401000000008111156100d057600080fd5b8201836020820111156100e257600080fd5b8035906020019184600183028401116401000000008311171561010457600080fd5b91908080601f016020809104026020016040519081016040528093929190818152602001838380828437600092019190915250929550610433945050505050565b005b61014f610480565b60408051918252519081900360200190f35b6101456004803603606081101561017757600080fd5b81359160208101359181019060608101604082013564010000000081111561019e57600080fd5b8201836020820111156101b057600080fd5b803590602001918460018302840111640100000000831117156101d257600080fd5b91908080601f016020809104026020016040519081016040528093929190818152602001838380828437600092019190915250929550610486945050505050565b6102306004803603602081101561022957600080fd5b50356104f3565b6040518083815260200180602001828103825283818151815260200191508051906020019080838360005b8381101561027357818101518382015260200161025b565b50505050905090810190601f1680156102a05780820380516001836020036101000a031916815260200191505b50935050505060405180910390f35b61014f61059a565b610145600480360360408110156102cd57600080fd5b813591908101906040810160208201356401000000008111156102ef57600080fd5b82018360208201111561030157600080fd5b8035906020019184600183028401116401000000008311171561032357600080fd5b91908080601f0160208091040260200160405190810160405280939291908181526020018383808284376000920191909152509295506105a0945050505050565b6103816004803603602081101561037a57600080fd5b50356105e9565b6040518085815260200184815260200183815260200180602001828103825283818151815260200191508051906020019080838360005b838110156103d05781810151838201526020016103b8565b50505050905090810190601f1680156103fd5780820380516001836020036101000a031916815260200191505b509550505050505060405180910390f35b61014f6106b1565b6102306004803603602081101561042c57600080fd5b50356106b7565b6000805460019081018255604080518082018252858152602080820186815287865260038252929094208151815591518051919492936104799390850192910190610729565b5050505050565b60015481565b60018054810180825560408051608081018252828152602080820188815282840188815260608401888152600096875260048452949095208351815590519581019590955592516002850155905180519193926104eb92600385019290910190610729565b505050505050565b6003602090815260009182526040918290208054600180830180548651600293821615610100026000190190911692909204601f8101869004860283018601909652858252919492939092908301828280156105905780601f1061056557610100808354040283529160200191610590565b820191906000526020600020905b81548152906001019060200180831161057357829003601f168201915b5050505050905082565b60025481565b6002805460019081019091556040805180820182528481526020808201858152600087815260058352939093208251815592518051929461047993908501929190910190610729565b6004602052806000526040600020600091509050806000015490806001015490806002015490806003018054600181600116156101000203166002900480601f0160208091040260200160405190810160405280929190818152602001828054600181600116156101000203166002900480156106a75780601f1061067c576101008083540402835291602001916106a7565b820191906000526020600020905b81548152906001019060200180831161068a57829003601f168201915b5050505050905084565b60005481565b6005602090815260009182526040918290208054600180830180548651600293821615610100026000190190911692909204601f8101869004860283018601909652858252919492939092908301828280156105905780601f1061056557610100808354040283529160200191610590565b828054600181600116156101000203166002900490600052602060002090601f016020900481019282601f1061076a57805160ff1916838001178555610797565b82800160010185558215610797579182015b8281111561079757825182559160200191906001019061077c565b506107a39291506107a7565b5090565b6107c191905b808211156107a357600081556001016107ad565b9056fea265627a7a72315820d07ca55bbf85452c075ad99f1f3d0c188d81293c007489b6ac91a0e80a1ea1b164736f6c63430005100032",
  "source": "pragma solidity ^0.5.0;\n\ncontract Gox { // Group of X (G7,G8, etc.)\n\n  uint public usersCnt = 0;\n  uint public entriesCnt = 0;\n  uint public publishersCnt = 0;\n\n  struct User {\n    uint id;\n    string name;\n  }\n\n\n  struct Publisher {\n    uint id;\n    string name;\n  }\n\n  struct Entry {\n    uint id;\n    uint uid;\n    uint pid;\n    string content;\n  }\n\n  mapping(uint => User) public users;\n  mapping(uint => Entry) public entries;\n  mapping(uint => Publisher) public publishers;\n\n\n  constructor() public {\n\n      createUser(1, 'kobi');\n      createUser(2, 'mate');\n      createPublisher(1, 'Haifa University');\n      createPublisher(2, 'Tel Aviv University');\n      createEntry(1, 2, 'CS degree');\n      createEntry(2, 1, 'Dog degree');\n    \n    // for (uint i = 0; i <5; i++) {\n    //   uint uid = 1 + i;\n    //   string memory uname = 'Kobi';\n\n    //   uint pid = 1 + i;\n    //   string memory pname = 'Haifa University';\n\n    //   string memory content = 'Some awsome achievement';\n\n    //   createUser(uid, uname);\n    //   createPublisher(pid, pname);\n    //   createEntry(uid, pid, content);\n    // }\n\n  }\n\n\n  function createUser(uint _id, string memory _name) public {\n    usersCnt ++;\n    users[_id] = User(_id, _name);\n  }\n\n\n  function createPublisher(uint _id, string memory _name) public {\n    publishersCnt ++;\n    publishers[_id] = Publisher(_id, _name);\n  }\n\n\n  function createEntry(uint _uid, uint _pid, string memory _content) public {\n    entriesCnt ++;\n    entries[entriesCnt] = Entry(entriesCnt, _uid, _pid, _content);\n  }\n\n\n\n  // function createListing(string memory _subject) public {\n  //   listingsCount ++;\n  //   listings[listingsCount] = Listing(listingsCount, 13, 5, _subject, 'awsome', '');\n  //   // emit TaskCreated(taskCount, _content, false);\n  // }\n\n  // event TaskCreated(\n  //   uint id,\n  //   string content,\n  //   bool completed\n  // );\n\n  // event TaskCompleted(\n  //   uint id,\n  //   bool completed\n  // );\n\n  // function toggleCompleted(uint _id) public {\n  //   Task memory _task = tasks[_id];\n  //   _task.completed = !_task.completed;\n  //   tasks[_id] = _task;\n  //   emit TaskCompleted(_id, _task.completed);\n  // }\n\n}\n",
  "sourcePath": "/Users/kobarhan/workspace/eth-todo-list/contracts/Gox.sol",
  "compiler": {
    "name": "solc",
    "version": "0.5.16+commit.9c3226ce.Emscripten.clang"
  },
  "schemaVersion": "3.2.3",
  "updatedAt": "2020-08-12T13:02:27.218Z",
  "networkType": "ethereum",
  "devdoc": {
    "methods": {}
  },
  "userdoc": {
    "methods": {}
  }
}